{
	"_format": "hh-sol-artifact-1",
	"contractName": "Airline",
	"sourceName": "contracts/Airline.sol",
	"abi": [
		{
			"inputs": [],
			"stateMutability": "nonpayable",
			"type": "constructor"
		},
		{
			"anonymous": false,
			"inputs": [
				{
					"indexed": true,
					"internalType": "address",
					"name": "owner",
					"type": "address"
				},
				{
					"indexed": true,
					"internalType": "address",
					"name": "approved",
					"type": "address"
				},
				{
					"indexed": true,
					"internalType": "uint256",
					"name": "tokenId",
					"type": "uint256"
				}
			],
			"name": "Approval",
			"type": "event"
		},
		{
			"anonymous": false,
			"inputs": [
				{
					"indexed": true,
					"internalType": "address",
					"name": "owner",
					"type": "address"
				},
				{
					"indexed": true,
					"internalType": "address",
					"name": "operator",
					"type": "address"
				},
				{
					"indexed": false,
					"internalType": "bool",
					"name": "approved",
					"type": "bool"
				}
			],
			"name": "ApprovalForAll",
			"type": "event"
		},
		{
			"anonymous": false,
			"inputs": [
				{
					"indexed": true,
					"internalType": "address",
					"name": "previousOwner",
					"type": "address"
				},
				{
					"indexed": true,
					"internalType": "address",
					"name": "newOwner",
					"type": "address"
				}
			],
			"name": "OwnershipTransferred",
			"type": "event"
		},
		{
			"anonymous": false,
			"inputs": [
				{
					"indexed": true,
					"internalType": "address",
					"name": "from",
					"type": "address"
				},
				{
					"indexed": true,
					"internalType": "address",
					"name": "to",
					"type": "address"
				},
				{
					"indexed": true,
					"internalType": "uint256",
					"name": "tokenId",
					"type": "uint256"
				}
			],
			"name": "Transfer",
			"type": "event"
		},
		{
			"inputs": [
				{
					"internalType": "address",
					"name": "to",
					"type": "address"
				},
				{
					"internalType": "uint256",
					"name": "tokenId",
					"type": "uint256"
				}
			],
			"name": "approve",
			"outputs": [],
			"stateMutability": "nonpayable",
			"type": "function"
		},
		{
			"inputs": [
				{
					"internalType": "address",
					"name": "owner",
					"type": "address"
				}
			],
			"name": "balanceOf",
			"outputs": [
				{
					"internalType": "uint256",
					"name": "",
					"type": "uint256"
				}
			],
			"stateMutability": "view",
			"type": "function"
		},
		{
			"inputs": [],
			"name": "fetchMyNFTs",
			"outputs": [
				{
					"components": [
						{
							"internalType": "uint256",
							"name": "tokenId",
							"type": "uint256"
						},
						{
							"internalType": "uint256",
							"name": "price",
							"type": "uint256"
						},
						{
							"internalType": "string",
							"name": "uri",
							"type": "string"
						},
						{
							"internalType": "address",
							"name": "buyer",
							"type": "address"
						}
					],
					"internalType": "struct Airline.NFT[]",
					"name": "",
					"type": "tuple[]"
				}
			],
			"stateMutability": "view",
			"type": "function"
		},
		{
			"inputs": [
				{
					"internalType": "uint256",
					"name": "tokenId",
					"type": "uint256"
				}
			],
			"name": "getApproved",
			"outputs": [
				{
					"internalType": "address",
					"name": "",
					"type": "address"
				}
			],
			"stateMutability": "view",
			"type": "function"
		},
		{
			"inputs": [
				{
					"internalType": "address",
					"name": "owner",
					"type": "address"
				},
				{
					"internalType": "address",
					"name": "operator",
					"type": "address"
				}
			],
			"name": "isApprovedForAll",
			"outputs": [
				{
					"internalType": "bool",
					"name": "",
					"type": "bool"
				}
			],
			"stateMutability": "view",
			"type": "function"
		},
		{
			"inputs": [],
			"name": "name",
			"outputs": [
				{
					"internalType": "string",
					"name": "",
					"type": "string"
				}
			],
			"stateMutability": "view",
			"type": "function"
		},
		{
			"inputs": [],
			"name": "owner",
			"outputs": [
				{
					"internalType": "address",
					"name": "",
					"type": "address"
				}
			],
			"stateMutability": "view",
			"type": "function"
		},
		{
			"inputs": [
				{
					"internalType": "uint256",
					"name": "tokenId",
					"type": "uint256"
				}
			],
			"name": "ownerOf",
			"outputs": [
				{
					"internalType": "address",
					"name": "",
					"type": "address"
				}
			],
			"stateMutability": "view",
			"type": "function"
		},
		{
			"inputs": [
				{
					"components": [
						{
							"internalType": "string",
							"name": "api",
							"type": "string"
						},
						{
							"internalType": "bytes",
							"name": "signature",
							"type": "bytes"
						}
					],
					"internalType": "struct Airline.AirlineNFTVoucher",
					"name": "voucher",
					"type": "tuple"
				}
			],
			"name": "recover",
			"outputs": [
				{
					"internalType": "address",
					"name": "",
					"type": "address"
				}
			],
			"stateMutability": "view",
			"type": "function"
		},
		{
			"inputs": [],
			"name": "renounceOwnership",
			"outputs": [],
			"stateMutability": "nonpayable",
			"type": "function"
		},
		{
			"inputs": [
				{
					"components": [
						{
							"internalType": "string",
							"name": "api",
							"type": "string"
						},
						{
							"internalType": "bytes",
							"name": "signature",
							"type": "bytes"
						}
					],
					"internalType": "struct Airline.AirlineNFTVoucher",
					"name": "voucher",
					"type": "tuple"
				},
				{
					"components": [
						{
							"internalType": "uint256",
							"name": "price",
							"type": "uint256"
						},
						{
							"internalType": "string[]",
							"name": "uri",
							"type": "string[]"
						},
						{
							"internalType": "address",
							"name": "buyer",
							"type": "address"
						}
					],
					"internalType": "struct Airline.AirlineNFT",
					"name": "nft",
					"type": "tuple"
				}
			],
			"name": "safeMint",
			"outputs": [],
			"stateMutability": "payable",
			"type": "function"
		},
		{
			"inputs": [
				{
					"internalType": "address",
					"name": "from",
					"type": "address"
				},
				{
					"internalType": "address",
					"name": "to",
					"type": "address"
				},
				{
					"internalType": "uint256",
					"name": "tokenId",
					"type": "uint256"
				}
			],
			"name": "safeTransferFrom",
			"outputs": [],
			"stateMutability": "nonpayable",
			"type": "function"
		},
		{
			"inputs": [
				{
					"internalType": "address",
					"name": "from",
					"type": "address"
				},
				{
					"internalType": "address",
					"name": "to",
					"type": "address"
				},
				{
					"internalType": "uint256",
					"name": "tokenId",
					"type": "uint256"
				},
				{
					"internalType": "bytes",
					"name": "data",
					"type": "bytes"
				}
			],
			"name": "safeTransferFrom",
			"outputs": [],
			"stateMutability": "nonpayable",
			"type": "function"
		},
		{
			"inputs": [
				{
					"internalType": "address",
					"name": "operator",
					"type": "address"
				},
				{
					"internalType": "bool",
					"name": "approved",
					"type": "bool"
				}
			],
			"name": "setApprovalForAll",
			"outputs": [],
			"stateMutability": "nonpayable",
			"type": "function"
		},
		{
			"inputs": [
				{
					"internalType": "bytes4",
					"name": "interfaceId",
					"type": "bytes4"
				}
			],
			"name": "supportsInterface",
			"outputs": [
				{
					"internalType": "bool",
					"name": "",
					"type": "bool"
				}
			],
			"stateMutability": "view",
			"type": "function"
		},
		{
			"inputs": [],
			"name": "symbol",
			"outputs": [
				{
					"internalType": "string",
					"name": "",
					"type": "string"
				}
			],
			"stateMutability": "view",
			"type": "function"
		},
		{
			"inputs": [
				{
					"internalType": "uint256",
					"name": "tokenId",
					"type": "uint256"
				}
			],
			"name": "tokenURI",
			"outputs": [
				{
					"internalType": "string",
					"name": "",
					"type": "string"
				}
			],
			"stateMutability": "view",
			"type": "function"
		},
		{
			"inputs": [
				{
					"internalType": "address",
					"name": "from",
					"type": "address"
				},
				{
					"internalType": "address",
					"name": "to",
					"type": "address"
				},
				{
					"internalType": "uint256",
					"name": "tokenId",
					"type": "uint256"
				}
			],
			"name": "transferFrom",
			"outputs": [],
			"stateMutability": "nonpayable",
			"type": "function"
		},
		{
			"inputs": [
				{
					"internalType": "address",
					"name": "newOwner",
					"type": "address"
				}
			],
			"name": "transferOwnership",
			"outputs": [],
			"stateMutability": "nonpayable",
			"type": "function"
		}
	],
	"bytecode": "0x6101406040523480156200001257600080fd5b506040518060400160405280600e81526020017f4169726c696e655469636b6574730000000000000000000000000000000000008152506040518060400160405280600181526020017f31000000000000000000000000000000000000000000000000000000000000008152506040518060400160405280600781526020017f4169726c696e65000000000000000000000000000000000000000000000000008152506040518060400160405280600381526020017f41544b00000000000000000000000000000000000000000000000000000000008152508160009081620000fc9190620005ae565b5080600190816200010e9190620005ae565b50505062000131620001256200022a60201b60201c565b6200023260201b60201c565b60008280519060200120905060008280519060200120905060007f8b73c3c69bb8fe3d512ecc4cf759cc79239f7b179b0ffacaa9a75d522b39400f90508260e081815250508161010081815250504660a081815250506200019a818484620002f860201b60201c565b608081815250503073ffffffffffffffffffffffffffffffffffffffff1660c08173ffffffffffffffffffffffffffffffffffffffff1681525050806101208181525050505050505033600860006101000a81548173ffffffffffffffffffffffffffffffffffffffff021916908373ffffffffffffffffffffffffffffffffffffffff16021790555062000763565b600033905090565b6000600760009054906101000a900473ffffffffffffffffffffffffffffffffffffffff16905081600760006101000a81548173ffffffffffffffffffffffffffffffffffffffff021916908373ffffffffffffffffffffffffffffffffffffffff1602179055508173ffffffffffffffffffffffffffffffffffffffff168173ffffffffffffffffffffffffffffffffffffffff167f8be0079c531659141344cd1fd0a4f28419497f9722a3daafe3b4186f6b6457e060405160405180910390a35050565b600083838346306040516020016200031595949392919062000706565b6040516020818303038152906040528051906020012090509392505050565b600081519050919050565b7f4e487b7100000000000000000000000000000000000000000000000000000000600052604160045260246000fd5b7f4e487b7100000000000000000000000000000000000000000000000000000000600052602260045260246000fd5b60006002820490506001821680620003b657607f821691505b602082108103620003cc57620003cb6200036e565b5b50919050565b60008190508160005260206000209050919050565b60006020601f8301049050919050565b600082821b905092915050565b600060088302620004367fffffffffffffffffffffffffffffffffffffffffffffffffffffffffffffffff82620003f7565b620004428683620003f7565b95508019841693508086168417925050509392505050565b6000819050919050565b6000819050919050565b60006200048f6200048962000483846200045a565b62000464565b6200045a565b9050919050565b6000819050919050565b620004ab836200046e565b620004c3620004ba8262000496565b84845462000404565b825550505050565b600090565b620004da620004cb565b620004e7818484620004a0565b505050565b5b818110156200050f5762000503600082620004d0565b600181019050620004ed565b5050565b601f8211156200055e576200052881620003d2565b6200053384620003e7565b8101602085101562000543578190505b6200055b6200055285620003e7565b830182620004ec565b50505b505050565b600082821c905092915050565b6000620005836000198460080262000563565b1980831691505092915050565b60006200059e838362000570565b9150826002028217905092915050565b620005b98262000334565b67ffffffffffffffff811115620005d557620005d46200033f565b5b620005e182546200039d565b620005ee82828562000513565b600060209050601f83116001811462000626576000841562000611578287015190505b6200061d858262000590565b8655506200068d565b601f1984166200063686620003d2565b60005b82811015620006605784890151825560018201915060208501945060208101905062000639565b868310156200068057848901516200067c601f89168262000570565b8355505b6001600288020188555050505b505050505050565b6000819050919050565b620006aa8162000695565b82525050565b620006bb816200045a565b82525050565b600073ffffffffffffffffffffffffffffffffffffffff82169050919050565b6000620006ee82620006c1565b9050919050565b6200070081620006e1565b82525050565b600060a0820190506200071d60008301886200069f565b6200072c60208301876200069f565b6200073b60408301866200069f565b6200074a6060830185620006b0565b620007596080830184620006f5565b9695505050505050565b60805160a05160c05160e0516101005161012051614441620007b36000396000611f5f01526000611fa101526000611f8001526000611eb501526000611f0b01526000611f3401526144416000f3fe6080604052600436106101145760003560e01c80636352211e116100a0578063a22cb46511610064578063a22cb465146103a4578063b88d4fde146103cd578063c87b56dd146103f6578063e985e9c514610433578063f2fde38b1461047057610114565b80636352211e146102bd57806370a08231146102fa578063715018a6146103375780638da5cb5b1461034e57806395d89b411461037957610114565b8063202e3740116100e7578063202e3740146101e757806323b872dd1461021257806342842e0e1461023b5780635528e70c1461026457806360f453eb1461028057610114565b806301ffc9a71461011957806306fdde0314610156578063081812fc14610181578063095ea7b3146101be575b600080fd5b34801561012557600080fd5b50610140600480360381019061013b91906129e2565b610499565b60405161014d9190612a2a565b60405180910390f35b34801561016257600080fd5b5061016b61057b565b6040516101789190612ad5565b60405180910390f35b34801561018d57600080fd5b506101a860048036038101906101a39190612b2d565b61060d565b6040516101b59190612b9b565b60405180910390f35b3480156101ca57600080fd5b506101e560048036038101906101e09190612be2565b610653565b005b3480156101f357600080fd5b506101fc61076a565b6040516102099190612daf565b60405180910390f35b34801561021e57600080fd5b5061023960048036038101906102349190612dd1565b610a77565b005b34801561024757600080fd5b50610262600480360381019061025d9190612dd1565b610ad7565b005b61027e60048036038101906102799190612e67565b610af7565b005b34801561028c57600080fd5b506102a760048036038101906102a29190612edf565b610e07565b6040516102b49190612b9b565b60405180910390f35b3480156102c957600080fd5b506102e460048036038101906102df9190612b2d565b610eec565b6040516102f19190612b9b565b60405180910390f35b34801561030657600080fd5b50610321600480360381019061031c9190612f28565b610f72565b60405161032e9190612f64565b60405180910390f35b34801561034357600080fd5b5061034c611029565b005b34801561035a57600080fd5b5061036361103d565b6040516103709190612b9b565b60405180910390f35b34801561038557600080fd5b5061038e611067565b60405161039b9190612ad5565b60405180910390f35b3480156103b057600080fd5b506103cb60048036038101906103c69190612fab565b6110f9565b005b3480156103d957600080fd5b506103f460048036038101906103ef9190613120565b61110f565b005b34801561040257600080fd5b5061041d60048036038101906104189190612b2d565b611171565b60405161042a9190612ad5565b60405180910390f35b34801561043f57600080fd5b5061045a600480360381019061045591906131a3565b611183565b6040516104679190612a2a565b60405180910390f35b34801561047c57600080fd5b5061049760048036038101906104929190612f28565b611217565b005b60007f80ac58cd000000000000000000000000000000000000000000000000000000007bffffffffffffffffffffffffffffffffffffffffffffffffffffffff1916827bffffffffffffffffffffffffffffffffffffffffffffffffffffffff1916148061056457507f5b5e139f000000000000000000000000000000000000000000000000000000007bffffffffffffffffffffffffffffffffffffffffffffffffffffffff1916827bffffffffffffffffffffffffffffffffffffffffffffffffffffffff1916145b8061057457506105738261129a565b5b9050919050565b60606000805461058a90613212565b80601f01602080910402602001604051908101604052809291908181526020018280546105b690613212565b80156106035780601f106105d857610100808354040283529160200191610603565b820191906000526020600020905b8154815290600101906020018083116105e657829003601f168201915b5050505050905090565b600061061882611304565b6004600083815260200190815260200160002060009054906101000a900473ffffffffffffffffffffffffffffffffffffffff169050919050565b600061065e82610eec565b90508073ffffffffffffffffffffffffffffffffffffffff168373ffffffffffffffffffffffffffffffffffffffff16036106ce576040517f08c379a00000000000000000000000000000000000000000000000000000000081526004016106c5906132b5565b60405180910390fd5b8073ffffffffffffffffffffffffffffffffffffffff166106ed61134f565b73ffffffffffffffffffffffffffffffffffffffff16148061071c575061071b8161071661134f565b611183565b5b61075b576040517f08c379a000000000000000000000000000000000000000000000000000000000815260040161075290613347565b60405180910390fd5b6107658383611357565b505050565b60606000610778600a611410565b905060008060005b83811015610820573373ffffffffffffffffffffffffffffffffffffffff16600960006001846107b09190613396565b815260200190815260200160002060030160009054906101000a900473ffffffffffffffffffffffffffffffffffffffff1673ffffffffffffffffffffffffffffffffffffffff160361080d5760018361080a9190613396565b92505b8080610818906133ca565b915050610780565b5060008267ffffffffffffffff81111561083d5761083c612ff5565b5b60405190808252806020026020018201604052801561087657816020015b610863612938565b81526020019060019003908161085b5790505b50905060005b84811015610a6c573373ffffffffffffffffffffffffffffffffffffffff16600960006001846108ac9190613396565b815260200190815260200160002060030160009054906101000a900473ffffffffffffffffffffffffffffffffffffffff1673ffffffffffffffffffffffffffffffffffffffff1603610a595760006001826109089190613396565b9050600060096000838152602001908152602001600020905080604051806080016040529081600082015481526020016001820154815260200160028201805461095190613212565b80601f016020809104026020016040519081016040528092919081815260200182805461097d90613212565b80156109ca5780601f1061099f576101008083540402835291602001916109ca565b820191906000526020600020905b8154815290600101906020018083116109ad57829003601f168201915b505050505081526020016003820160009054906101000a900473ffffffffffffffffffffffffffffffffffffffff1673ffffffffffffffffffffffffffffffffffffffff1673ffffffffffffffffffffffffffffffffffffffff1681525050848681518110610a3c57610a3b613412565b5b6020026020010181905250600185610a549190613396565b945050505b8080610a64906133ca565b91505061087c565b508094505050505090565b610a88610a8261134f565b8261141e565b610ac7576040517f08c379a0000000000000000000000000000000000000000000000000000000008152600401610abe906134b3565b60405180910390fd5b610ad28383836114b3565b505050565b610af28383836040518060200160405280600081525061110f565b505050565b610b0082610e07565b73ffffffffffffffffffffffffffffffffffffffff16600860009054906101000a900473ffffffffffffffffffffffffffffffffffffffff1673ffffffffffffffffffffffffffffffffffffffff1614610b8f576040517f08c379a0000000000000000000000000000000000000000000000000000000008152600401610b869061351f565b60405180910390fd5b8060000135341015610bd6576040517f08c379a0000000000000000000000000000000000000000000000000000000008152600401610bcd9061358b565b60405180910390fd5b60005b818060200190610be991906135ba565b9050811015610e0257610bfc600a6117ac565b6000610c08600a611410565b9050604051806080016040528082815260200184600001358152602001848060200190610c3591906135ba565b85818110610c4657610c45613412565b5b9050602002810190610c58919061361d565b8080601f016020809104026020016040519081016040528093929190818152602001838380828437600081840152601f19601f820116905080830192505050505050508152602001846040016020810190610cb39190612f28565b73ffffffffffffffffffffffffffffffffffffffff168152506009600083815260200190815260200160002060008201518160000155602082015181600101556040820151816002019081610d08919061382c565b5060608201518160030160006101000a81548173ffffffffffffffffffffffffffffffffffffffff021916908373ffffffffffffffffffffffffffffffffffffffff160217905550905050610d6f836040016020810190610d699190612f28565b826117c2565b610dee81848060200190610d8391906135ba565b85818110610d9457610d93613412565b5b9050602002810190610da6919061361d565b8080601f016020809104026020016040519081016040528093929190818152602001838380828437600081840152601f19601f820116905080830192505050505050506117e0565b508080610dfa906133ca565b915050610bd9565b505050565b600080610e807fc7f16f1264ede12060f8e7ce547151a60d80980bf0f903a37913264d7f331670848060000190610e3e919061361d565b604051610e4c92919061392e565b6040518091039020604051602001610e65929190613960565b6040516020818303038152906040528051906020012061184d565b90506000610ee082858060200190610e989190613989565b8080601f016020809104026020016040519081016040528093929190818152602001838380828437600081840152601f19601f82011690508083019250505050505050611867565b90508092505050919050565b600080610ef88361188e565b9050600073ffffffffffffffffffffffffffffffffffffffff168173ffffffffffffffffffffffffffffffffffffffff1603610f69576040517f08c379a0000000000000000000000000000000000000000000000000000000008152600401610f6090613a38565b60405180910390fd5b80915050919050565b60008073ffffffffffffffffffffffffffffffffffffffff168273ffffffffffffffffffffffffffffffffffffffff1603610fe2576040517f08c379a0000000000000000000000000000000000000000000000000000000008152600401610fd990613aca565b60405180910390fd5b600360008373ffffffffffffffffffffffffffffffffffffffff1673ffffffffffffffffffffffffffffffffffffffff168152602001908152602001600020549050919050565b6110316118cb565b61103b6000611949565b565b6000600760009054906101000a900473ffffffffffffffffffffffffffffffffffffffff16905090565b60606001805461107690613212565b80601f01602080910402602001604051908101604052809291908181526020018280546110a290613212565b80156110ef5780601f106110c4576101008083540402835291602001916110ef565b820191906000526020600020905b8154815290600101906020018083116110d257829003601f168201915b5050505050905090565b61110b61110461134f565b8383611a0f565b5050565b61112061111a61134f565b8361141e565b61115f576040517f08c379a0000000000000000000000000000000000000000000000000000000008152600401611156906134b3565b60405180910390fd5b61116b84848484611b7b565b50505050565b606061117c82611bd7565b9050919050565b6000600560008473ffffffffffffffffffffffffffffffffffffffff1673ffffffffffffffffffffffffffffffffffffffff16815260200190815260200160002060008373ffffffffffffffffffffffffffffffffffffffff1673ffffffffffffffffffffffffffffffffffffffff16815260200190815260200160002060009054906101000a900460ff16905092915050565b61121f6118cb565b600073ffffffffffffffffffffffffffffffffffffffff168173ffffffffffffffffffffffffffffffffffffffff160361128e576040517f08c379a000000000000000000000000000000000000000000000000000000000815260040161128590613b5c565b60405180910390fd5b61129781611949565b50565b60007f01ffc9a7000000000000000000000000000000000000000000000000000000007bffffffffffffffffffffffffffffffffffffffffffffffffffffffff1916827bffffffffffffffffffffffffffffffffffffffffffffffffffffffff1916149050919050565b61130d81611ce9565b61134c576040517f08c379a000000000000000000000000000000000000000000000000000000000815260040161134390613a38565b60405180910390fd5b50565b600033905090565b816004600083815260200190815260200160002060006101000a81548173ffffffffffffffffffffffffffffffffffffffff021916908373ffffffffffffffffffffffffffffffffffffffff160217905550808273ffffffffffffffffffffffffffffffffffffffff166113ca83610eec565b73ffffffffffffffffffffffffffffffffffffffff167f8c5be1e5ebec7d5bd14f71427d1e84f3dd0314c0f7b2291e5b200ac8c7c3b92560405160405180910390a45050565b600081600001549050919050565b60008061142a83610eec565b90508073ffffffffffffffffffffffffffffffffffffffff168473ffffffffffffffffffffffffffffffffffffffff16148061146c575061146b8185611183565b5b806114aa57508373ffffffffffffffffffffffffffffffffffffffff166114928461060d565b73ffffffffffffffffffffffffffffffffffffffff16145b91505092915050565b8273ffffffffffffffffffffffffffffffffffffffff166114d382610eec565b73ffffffffffffffffffffffffffffffffffffffff1614611529576040517f08c379a000000000000000000000000000000000000000000000000000000000815260040161152090613bee565b60405180910390fd5b600073ffffffffffffffffffffffffffffffffffffffff168273ffffffffffffffffffffffffffffffffffffffff1603611598576040517f08c379a000000000000000000000000000000000000000000000000000000000815260040161158f90613c80565b60405180910390fd5b6115a58383836001611d2a565b8273ffffffffffffffffffffffffffffffffffffffff166115c582610eec565b73ffffffffffffffffffffffffffffffffffffffff161461161b576040517f08c379a000000000000000000000000000000000000000000000000000000000815260040161161290613bee565b60405180910390fd5b6004600082815260200190815260200160002060006101000a81549073ffffffffffffffffffffffffffffffffffffffff02191690556001600360008573ffffffffffffffffffffffffffffffffffffffff1673ffffffffffffffffffffffffffffffffffffffff168152602001908152602001600020600082825403925050819055506001600360008473ffffffffffffffffffffffffffffffffffffffff1673ffffffffffffffffffffffffffffffffffffffff16815260200190815260200160002060008282540192505081905550816002600083815260200190815260200160002060006101000a81548173ffffffffffffffffffffffffffffffffffffffff021916908373ffffffffffffffffffffffffffffffffffffffff160217905550808273ffffffffffffffffffffffffffffffffffffffff168473ffffffffffffffffffffffffffffffffffffffff167fddf252ad1be2c89b69c2b068fc378daa952ba7f163c4a11628f55a4df523b3ef60405160405180910390a46117a78383836001611e50565b505050565b6001816000016000828254019250508190555050565b6117dc828260405180602001604052806000815250611e56565b5050565b6117e982611ce9565b611828576040517f08c379a000000000000000000000000000000000000000000000000000000000815260040161181f90613d12565b60405180910390fd5b80600660008481526020019081526020016000209081611848919061382c565b505050565b600061186061185a611eb1565b83611fcb565b9050919050565b60008060006118768585611ffe565b915091506118838161204f565b819250505092915050565b60006002600083815260200190815260200160002060009054906101000a900473ffffffffffffffffffffffffffffffffffffffff169050919050565b6118d361134f565b73ffffffffffffffffffffffffffffffffffffffff166118f161103d565b73ffffffffffffffffffffffffffffffffffffffff1614611947576040517f08c379a000000000000000000000000000000000000000000000000000000000815260040161193e90613d7e565b60405180910390fd5b565b6000600760009054906101000a900473ffffffffffffffffffffffffffffffffffffffff16905081600760006101000a81548173ffffffffffffffffffffffffffffffffffffffff021916908373ffffffffffffffffffffffffffffffffffffffff1602179055508173ffffffffffffffffffffffffffffffffffffffff168173ffffffffffffffffffffffffffffffffffffffff167f8be0079c531659141344cd1fd0a4f28419497f9722a3daafe3b4186f6b6457e060405160405180910390a35050565b8173ffffffffffffffffffffffffffffffffffffffff168373ffffffffffffffffffffffffffffffffffffffff1603611a7d576040517f08c379a0000000000000000000000000000000000000000000000000000000008152600401611a7490613dea565b60405180910390fd5b80600560008573ffffffffffffffffffffffffffffffffffffffff1673ffffffffffffffffffffffffffffffffffffffff16815260200190815260200160002060008473ffffffffffffffffffffffffffffffffffffffff1673ffffffffffffffffffffffffffffffffffffffff16815260200190815260200160002060006101000a81548160ff0219169083151502179055508173ffffffffffffffffffffffffffffffffffffffff168373ffffffffffffffffffffffffffffffffffffffff167f17307eab39ab6107e8899845ad3d59bd9653f200f220920489ca2b5937696c3183604051611b6e9190612a2a565b60405180910390a3505050565b611b868484846114b3565b611b92848484846121b5565b611bd1576040517f08c379a0000000000000000000000000000000000000000000000000000000008152600401611bc890613e7c565b60405180910390fd5b50505050565b6060611be282611304565b6000600660008481526020019081526020016000208054611c0290613212565b80601f0160208091040260200160405190810160405280929190818152602001828054611c2e90613212565b8015611c7b5780601f10611c5057610100808354040283529160200191611c7b565b820191906000526020600020905b815481529060010190602001808311611c5e57829003601f168201915b505050505090506000611c8c61233c565b90506000815103611ca1578192505050611ce4565b600082511115611cd6578082604051602001611cbe929190613ed8565b60405160208183030381529060405292505050611ce4565b611cdf84612353565b925050505b919050565b60008073ffffffffffffffffffffffffffffffffffffffff16611d0b8361188e565b73ffffffffffffffffffffffffffffffffffffffff1614159050919050565b6001811115611e4a57600073ffffffffffffffffffffffffffffffffffffffff168473ffffffffffffffffffffffffffffffffffffffff1614611dbe5780600360008673ffffffffffffffffffffffffffffffffffffffff1673ffffffffffffffffffffffffffffffffffffffff1681526020019081526020016000206000828254611db69190613efc565b925050819055505b600073ffffffffffffffffffffffffffffffffffffffff168373ffffffffffffffffffffffffffffffffffffffff1614611e495780600360008573ffffffffffffffffffffffffffffffffffffffff1673ffffffffffffffffffffffffffffffffffffffff1681526020019081526020016000206000828254611e419190613396565b925050819055505b5b50505050565b50505050565b611e6083836123bb565b611e6d60008484846121b5565b611eac576040517f08c379a0000000000000000000000000000000000000000000000000000000008152600401611ea390613e7c565b60405180910390fd5b505050565b60007f000000000000000000000000000000000000000000000000000000000000000073ffffffffffffffffffffffffffffffffffffffff163073ffffffffffffffffffffffffffffffffffffffff16148015611f2d57507f000000000000000000000000000000000000000000000000000000000000000046145b15611f5a577f00000000000000000000000000000000000000000000000000000000000000009050611fc8565b611fc57f00000000000000000000000000000000000000000000000000000000000000007f00000000000000000000000000000000000000000000000000000000000000007f00000000000000000000000000000000000000000000000000000000000000006125d8565b90505b90565b60008282604051602001611fe0929190613f9d565b60405160208183030381529060405280519060200120905092915050565b600080604183510361203f5760008060006020860151925060408601519150606086015160001a905061203387828585612612565b94509450505050612048565b60006002915091505b9250929050565b6000600481111561206357612062613fd4565b5b81600481111561207657612075613fd4565b5b03156121b257600160048111156120905761208f613fd4565b5b8160048111156120a3576120a2613fd4565b5b036120e3576040517f08c379a00000000000000000000000000000000000000000000000000000000081526004016120da9061404f565b60405180910390fd5b600260048111156120f7576120f6613fd4565b5b81600481111561210a57612109613fd4565b5b0361214a576040517f08c379a0000000000000000000000000000000000000000000000000000000008152600401612141906140bb565b60405180910390fd5b6003600481111561215e5761215d613fd4565b5b81600481111561217157612170613fd4565b5b036121b1576040517f08c379a00000000000000000000000000000000000000000000000000000000081526004016121a89061414d565b60405180910390fd5b5b50565b60006121d68473ffffffffffffffffffffffffffffffffffffffff166126f4565b1561232f578373ffffffffffffffffffffffffffffffffffffffff1663150b7a026121ff61134f565b8786866040518563ffffffff1660e01b815260040161222194939291906141c2565b6020604051808303816000875af192505050801561225d57506040513d601f19601f8201168201806040525081019061225a9190614223565b60015b6122df573d806000811461228d576040519150601f19603f3d011682016040523d82523d6000602084013e612292565b606091505b5060008151036122d7576040517f08c379a00000000000000000000000000000000000000000000000000000000081526004016122ce90613e7c565b60405180910390fd5b805181602001fd5b63150b7a0260e01b7bffffffffffffffffffffffffffffffffffffffffffffffffffffffff1916817bffffffffffffffffffffffffffffffffffffffffffffffffffffffff191614915050612334565b600190505b949350505050565b606060405180602001604052806000815250905090565b606061235e82611304565b600061236861233c565b9050600081511161238857604051806020016040528060008152506123b3565b8061239284612717565b6040516020016123a3929190613ed8565b6040516020818303038152906040525b915050919050565b600073ffffffffffffffffffffffffffffffffffffffff168273ffffffffffffffffffffffffffffffffffffffff160361242a576040517f08c379a00000000000000000000000000000000000000000000000000000000081526004016124219061429c565b60405180910390fd5b61243381611ce9565b15612473576040517f08c379a000000000000000000000000000000000000000000000000000000000815260040161246a90614308565b60405180910390fd5b612481600083836001611d2a565b61248a81611ce9565b156124ca576040517f08c379a00000000000000000000000000000000000000000000000000000000081526004016124c190614308565b60405180910390fd5b6001600360008473ffffffffffffffffffffffffffffffffffffffff1673ffffffffffffffffffffffffffffffffffffffff16815260200190815260200160002060008282540192505081905550816002600083815260200190815260200160002060006101000a81548173ffffffffffffffffffffffffffffffffffffffff021916908373ffffffffffffffffffffffffffffffffffffffff160217905550808273ffffffffffffffffffffffffffffffffffffffff16600073ffffffffffffffffffffffffffffffffffffffff167fddf252ad1be2c89b69c2b068fc378daa952ba7f163c4a11628f55a4df523b3ef60405160405180910390a46125d4600083836001611e50565b5050565b600083838346306040516020016125f3959493929190614328565b6040516020818303038152906040528051906020012090509392505050565b6000807f7fffffffffffffffffffffffffffffff5d576e7357a4501ddfe92f46681b20a08360001c111561264d5760006003915091506126eb565b6000600187878787604051600081526020016040526040516126729493929190614397565b6020604051602081039080840390855afa158015612694573d6000803e3d6000fd5b505050602060405103519050600073ffffffffffffffffffffffffffffffffffffffff168173ffffffffffffffffffffffffffffffffffffffff16036126e2576000600192509250506126eb565b80600092509250505b94509492505050565b6000808273ffffffffffffffffffffffffffffffffffffffff163b119050919050565b606060006001612726846127e5565b01905060008167ffffffffffffffff81111561274557612744612ff5565b5b6040519080825280601f01601f1916602001820160405280156127775781602001600182028036833780820191505090505b509050600082602001820190505b6001156127da578080600190039150507f3031323334353637383961626364656600000000000000000000000000000000600a86061a8153600a85816127ce576127cd6143dc565b5b04945060008503612785575b819350505050919050565b600080600090507a184f03e93ff9f4daa797ed6e38ed64bf6a1f0100000000000000008310612843577a184f03e93ff9f4daa797ed6e38ed64bf6a1f0100000000000000008381612839576128386143dc565b5b0492506040810190505b6d04ee2d6d415b85acef81000000008310612880576d04ee2d6d415b85acef81000000008381612876576128756143dc565b5b0492506020810190505b662386f26fc1000083106128af57662386f26fc1000083816128a5576128a46143dc565b5b0492506010810190505b6305f5e10083106128d8576305f5e10083816128ce576128cd6143dc565b5b0492506008810190505b61271083106128fd5761271083816128f3576128f26143dc565b5b0492506004810190505b606483106129205760648381612916576129156143dc565b5b0492506002810190505b600a831061292f576001810190505b80915050919050565b6040518060800160405280600081526020016000815260200160608152602001600073ffffffffffffffffffffffffffffffffffffffff1681525090565b6000604051905090565b600080fd5b600080fd5b60007fffffffff0000000000000000000000000000000000000000000000000000000082169050919050565b6129bf8161298a565b81146129ca57600080fd5b50565b6000813590506129dc816129b6565b92915050565b6000602082840312156129f8576129f7612980565b5b6000612a06848285016129cd565b91505092915050565b60008115159050919050565b612a2481612a0f565b82525050565b6000602082019050612a3f6000830184612a1b565b92915050565b600081519050919050565b600082825260208201905092915050565b60005b83811015612a7f578082015181840152602081019050612a64565b60008484015250505050565b6000601f19601f8301169050919050565b6000612aa782612a45565b612ab18185612a50565b9350612ac1818560208601612a61565b612aca81612a8b565b840191505092915050565b60006020820190508181036000830152612aef8184612a9c565b905092915050565b6000819050919050565b612b0a81612af7565b8114612b1557600080fd5b50565b600081359050612b2781612b01565b92915050565b600060208284031215612b4357612b42612980565b5b6000612b5184828501612b18565b91505092915050565b600073ffffffffffffffffffffffffffffffffffffffff82169050919050565b6000612b8582612b5a565b9050919050565b612b9581612b7a565b82525050565b6000602082019050612bb06000830184612b8c565b92915050565b612bbf81612b7a565b8114612bca57600080fd5b50565b600081359050612bdc81612bb6565b92915050565b60008060408385031215612bf957612bf8612980565b5b6000612c0785828601612bcd565b9250506020612c1885828601612b18565b9150509250929050565b600081519050919050565b600082825260208201905092915050565b6000819050602082019050919050565b612c5781612af7565b82525050565b600082825260208201905092915050565b6000612c7982612a45565b612c838185612c5d565b9350612c93818560208601612a61565b612c9c81612a8b565b840191505092915050565b612cb081612b7a565b82525050565b6000608083016000830151612cce6000860182612c4e565b506020830151612ce16020860182612c4e565b5060408301518482036040860152612cf98282612c6e565b9150506060830151612d0e6060860182612ca7565b508091505092915050565b6000612d258383612cb6565b905092915050565b6000602082019050919050565b6000612d4582612c22565b612d4f8185612c2d565b935083602082028501612d6185612c3e565b8060005b85811015612d9d5784840389528151612d7e8582612d19565b9450612d8983612d2d565b925060208a01995050600181019050612d65565b50829750879550505050505092915050565b60006020820190508181036000830152612dc98184612d3a565b905092915050565b600080600060608486031215612dea57612de9612980565b5b6000612df886828701612bcd565b9350506020612e0986828701612bcd565b9250506040612e1a86828701612b18565b9150509250925092565b600080fd5b600060408284031215612e3f57612e3e612e24565b5b81905092915050565b600060608284031215612e5e57612e5d612e24565b5b81905092915050565b60008060408385031215612e7e57612e7d612980565b5b600083013567ffffffffffffffff811115612e9c57612e9b612985565b5b612ea885828601612e29565b925050602083013567ffffffffffffffff811115612ec957612ec8612985565b5b612ed585828601612e48565b9150509250929050565b600060208284031215612ef557612ef4612980565b5b600082013567ffffffffffffffff811115612f1357612f12612985565b5b612f1f84828501612e29565b91505092915050565b600060208284031215612f3e57612f3d612980565b5b6000612f4c84828501612bcd565b91505092915050565b612f5e81612af7565b82525050565b6000602082019050612f796000830184612f55565b92915050565b612f8881612a0f565b8114612f9357600080fd5b50565b600081359050612fa581612f7f565b92915050565b60008060408385031215612fc257612fc1612980565b5b6000612fd085828601612bcd565b9250506020612fe185828601612f96565b9150509250929050565b600080fd5b600080fd5b7f4e487b7100000000000000000000000000000000000000000000000000000000600052604160045260246000fd5b61302d82612a8b565b810181811067ffffffffffffffff8211171561304c5761304b612ff5565b5b80604052505050565b600061305f612976565b905061306b8282613024565b919050565b600067ffffffffffffffff82111561308b5761308a612ff5565b5b61309482612a8b565b9050602081019050919050565b82818337600083830152505050565b60006130c36130be84613070565b613055565b9050828152602081018484840111156130df576130de612ff0565b5b6130ea8482856130a1565b509392505050565b600082601f83011261310757613106612feb565b5b81356131178482602086016130b0565b91505092915050565b6000806000806080858703121561313a57613139612980565b5b600061314887828801612bcd565b945050602061315987828801612bcd565b935050604061316a87828801612b18565b925050606085013567ffffffffffffffff81111561318b5761318a612985565b5b613197878288016130f2565b91505092959194509250565b600080604083850312156131ba576131b9612980565b5b60006131c885828601612bcd565b92505060206131d985828601612bcd565b9150509250929050565b7f4e487b7100000000000000000000000000000000000000000000000000000000600052602260045260246000fd5b6000600282049050600182168061322a57607f821691505b60208210810361323d5761323c6131e3565b5b50919050565b7f4552433732313a20617070726f76616c20746f2063757272656e74206f776e6560008201527f7200000000000000000000000000000000000000000000000000000000000000602082015250565b600061329f602183612a50565b91506132aa82613243565b604082019050919050565b600060208201905081810360008301526132ce81613292565b9050919050565b7f4552433732313a20617070726f76652063616c6c6572206973206e6f7420746f60008201527f6b656e206f776e6572206f7220617070726f76656420666f7220616c6c000000602082015250565b6000613331603d83612a50565b915061333c826132d5565b604082019050919050565b6000602082019050818103600083015261336081613324565b9050919050565b7f4e487b7100000000000000000000000000000000000000000000000000000000600052601160045260246000fd5b60006133a182612af7565b91506133ac83612af7565b92508282019050808211156133c4576133c3613367565b5b92915050565b60006133d582612af7565b91507fffffffffffffffffffffffffffffffffffffffffffffffffffffffffffffffff820361340757613406613367565b5b600182019050919050565b7f4e487b7100000000000000000000000000000000000000000000000000000000600052603260045260246000fd5b7f4552433732313a2063616c6c6572206973206e6f7420746f6b656e206f776e6560008201527f72206f7220617070726f76656400000000000000000000000000000000000000602082015250565b600061349d602d83612a50565b91506134a882613441565b604082019050919050565b600060208201905081810360008301526134cc81613490565b9050919050565b7f57726f6e67207369676e61747572652e00000000000000000000000000000000600082015250565b6000613509601083612a50565b9150613514826134d3565b602082019050919050565b60006020820190508181036000830152613538816134fc565b9050919050565b7f496e73756666696369656e7420616d6f756e742073656e740000000000000000600082015250565b6000613575601883612a50565b91506135808261353f565b602082019050919050565b600060208201905081810360008301526135a481613568565b9050919050565b600080fd5b600080fd5b600080fd5b600080833560016020038436030381126135d7576135d66135ab565b5b80840192508235915067ffffffffffffffff8211156135f9576135f86135b0565b5b602083019250602082023603831315613615576136146135b5565b5b509250929050565b6000808335600160200384360303811261363a576136396135ab565b5b80840192508235915067ffffffffffffffff82111561365c5761365b6135b0565b5b602083019250600182023603831315613678576136776135b5565b5b509250929050565b60008190508160005260206000209050919050565b60006020601f8301049050919050565b600082821b905092915050565b6000600883026136e27fffffffffffffffffffffffffffffffffffffffffffffffffffffffffffffffff826136a5565b6136ec86836136a5565b95508019841693508086168417925050509392505050565b6000819050919050565b600061372961372461371f84612af7565b613704565b612af7565b9050919050565b6000819050919050565b6137438361370e565b61375761374f82613730565b8484546136b2565b825550505050565b600090565b61376c61375f565b61377781848461373a565b505050565b5b8181101561379b57613790600082613764565b60018101905061377d565b5050565b601f8211156137e0576137b181613680565b6137ba84613695565b810160208510156137c9578190505b6137dd6137d585613695565b83018261377c565b50505b505050565b600082821c905092915050565b6000613803600019846008026137e5565b1980831691505092915050565b600061381c83836137f2565b9150826002028217905092915050565b61383582612a45565b67ffffffffffffffff81111561384e5761384d612ff5565b5b6138588254613212565b61386382828561379f565b600060209050601f8311600181146138965760008415613884578287015190505b61388e8582613810565b8655506138f6565b601f1984166138a486613680565b60005b828110156138cc578489015182556001820191506020850194506020810190506138a7565b868310156138e957848901516138e5601f8916826137f2565b8355505b6001600288020188555050505b505050505050565b600081905092915050565b600061391583856138fe565b93506139228385846130a1565b82840190509392505050565b600061393b828486613909565b91508190509392505050565b6000819050919050565b61395a81613947565b82525050565b60006040820190506139756000830185613951565b6139826020830184613951565b9392505050565b600080833560016020038436030381126139a6576139a56135ab565b5b80840192508235915067ffffffffffffffff8211156139c8576139c76135b0565b5b6020830192506001820236038313156139e4576139e36135b5565b5b509250929050565b7f4552433732313a20696e76616c696420746f6b656e2049440000000000000000600082015250565b6000613a22601883612a50565b9150613a2d826139ec565b602082019050919050565b60006020820190508181036000830152613a5181613a15565b9050919050565b7f4552433732313a2061646472657373207a65726f206973206e6f74206120766160008201527f6c6964206f776e65720000000000000000000000000000000000000000000000602082015250565b6000613ab4602983612a50565b9150613abf82613a58565b604082019050919050565b60006020820190508181036000830152613ae381613aa7565b9050919050565b7f4f776e61626c653a206e6577206f776e657220697320746865207a65726f206160008201527f6464726573730000000000000000000000000000000000000000000000000000602082015250565b6000613b46602683612a50565b9150613b5182613aea565b604082019050919050565b60006020820190508181036000830152613b7581613b39565b9050919050565b7f4552433732313a207472616e736665722066726f6d20696e636f72726563742060008201527f6f776e6572000000000000000000000000000000000000000000000000000000602082015250565b6000613bd8602583612a50565b9150613be382613b7c565b604082019050919050565b60006020820190508181036000830152613c0781613bcb565b9050919050565b7f4552433732313a207472616e7366657220746f20746865207a65726f2061646460008201527f7265737300000000000000000000000000000000000000000000000000000000602082015250565b6000613c6a602483612a50565b9150613c7582613c0e565b604082019050919050565b60006020820190508181036000830152613c9981613c5d565b9050919050565b7f45524337323155524953746f726167653a2055524920736574206f66206e6f6e60008201527f6578697374656e7420746f6b656e000000000000000000000000000000000000602082015250565b6000613cfc602e83612a50565b9150613d0782613ca0565b604082019050919050565b60006020820190508181036000830152613d2b81613cef565b9050919050565b7f4f776e61626c653a2063616c6c6572206973206e6f7420746865206f776e6572600082015250565b6000613d68602083612a50565b9150613d7382613d32565b602082019050919050565b60006020820190508181036000830152613d9781613d5b565b9050919050565b7f4552433732313a20617070726f766520746f2063616c6c657200000000000000600082015250565b6000613dd4601983612a50565b9150613ddf82613d9e565b602082019050919050565b60006020820190508181036000830152613e0381613dc7565b9050919050565b7f4552433732313a207472616e7366657220746f206e6f6e20455243373231526560008201527f63656976657220696d706c656d656e7465720000000000000000000000000000602082015250565b6000613e66603283612a50565b9150613e7182613e0a565b604082019050919050565b60006020820190508181036000830152613e9581613e59565b9050919050565b600081905092915050565b6000613eb282612a45565b613ebc8185613e9c565b9350613ecc818560208601612a61565b80840191505092915050565b6000613ee48285613ea7565b9150613ef08284613ea7565b91508190509392505050565b6000613f0782612af7565b9150613f1283612af7565b9250828203905081811115613f2a57613f29613367565b5b92915050565b7f1901000000000000000000000000000000000000000000000000000000000000600082015250565b6000613f66600283613e9c565b9150613f7182613f30565b600282019050919050565b6000819050919050565b613f97613f9282613947565b613f7c565b82525050565b6000613fa882613f59565b9150613fb48285613f86565b602082019150613fc48284613f86565b6020820191508190509392505050565b7f4e487b7100000000000000000000000000000000000000000000000000000000600052602160045260246000fd5b7f45434453413a20696e76616c6964207369676e61747572650000000000000000600082015250565b6000614039601883612a50565b915061404482614003565b602082019050919050565b600060208201905081810360008301526140688161402c565b9050919050565b7f45434453413a20696e76616c6964207369676e6174757265206c656e67746800600082015250565b60006140a5601f83612a50565b91506140b08261406f565b602082019050919050565b600060208201905081810360008301526140d481614098565b9050919050565b7f45434453413a20696e76616c6964207369676e6174757265202773272076616c60008201527f7565000000000000000000000000000000000000000000000000000000000000602082015250565b6000614137602283612a50565b9150614142826140db565b604082019050919050565b600060208201905081810360008301526141668161412a565b9050919050565b600081519050919050565b600082825260208201905092915050565b60006141948261416d565b61419e8185614178565b93506141ae818560208601612a61565b6141b781612a8b565b840191505092915050565b60006080820190506141d76000830187612b8c565b6141e46020830186612b8c565b6141f16040830185612f55565b81810360608301526142038184614189565b905095945050505050565b60008151905061421d816129b6565b92915050565b60006020828403121561423957614238612980565b5b60006142478482850161420e565b91505092915050565b7f4552433732313a206d696e7420746f20746865207a65726f2061646472657373600082015250565b6000614286602083612a50565b915061429182614250565b602082019050919050565b600060208201905081810360008301526142b581614279565b9050919050565b7f4552433732313a20746f6b656e20616c7265616479206d696e74656400000000600082015250565b60006142f2601c83612a50565b91506142fd826142bc565b602082019050919050565b60006020820190508181036000830152614321816142e5565b9050919050565b600060a08201905061433d6000830188613951565b61434a6020830187613951565b6143576040830186613951565b6143646060830185612f55565b6143716080830184612b8c565b9695505050505050565b600060ff82169050919050565b6143918161437b565b82525050565b60006080820190506143ac6000830187613951565b6143b96020830186614388565b6143c66040830185613951565b6143d36060830184613951565b95945050505050565b7f4e487b7100000000000000000000000000000000000000000000000000000000600052601260045260246000fdfea264697066735822122061a0c03a947e33880ebda60f94ec06f780e509286920d08666af7a273903099464736f6c63430008110033",
	"linkReferences": {},
	"deployedLinkReferences": {}
}